:100000000A128A11F52FFF1B0D2883137F188317FF
:100010000008840A0319FF0A080000308A00040857
:10002000840A82070034013400340A340034643412
:100030000034E8340334103427343034303430346E
:100040003034303430343034303430343034303490
:100050003034303430343034303400344C3469345B
:1000600067346834743469346E34673420345634F9
:1000700061346C34753465343A3400340D344234B0
:1000800072346F346134643463346134733474347F
:10009000203423343A342034003449346E34693403
:1000A0007434693461346C3469347A34653464345A
:1000B0002E342E342E3400340D344D346F346234EB
:1000C00069346C3465343A34203400340D3453349C
:1000D00065346E3473346F3472343A3420340034FF
:1000E0000D3452345334533449343A3420340034C8
:1000F00041345434443442340D34003441345434A3
:10010000533448340D3400344134543453344C3473
:100110000D3400344134543443344E340D340034FF
:1001200052345334533449343A340034413454341F
:100130004434483400344134543444344C3400346E
:0E0140002B342B342B3400342534643400343B
:1001560083120313B2000A128A15AB240A128A11FB
:100166008430F6008030F7000A128A1531260A120A
:100176008A11831203133208FB007B08F000083053
:10018600F1000030F20020300A128A15D6250A1234
:100196008A1183120313A8012030F6000030F700FD
:1001A6000A128A1531260A128A116A30F600803040
:1001B600F7000A128A1531260A128A1183120313CE
:1001C600B301023033020318FE280A128A15752479
:1001D6000A128A11FB008312031333083F3E840080
:1001E6007B08831380000130FB007B08B3070230D5
:1001F6003302031CE8280A128A15AB240A128A1154
:100206008930F6008030F7000A128A1531260A1264
:100216008A11831203133208083EFB007B08F000A4
:100226000830F1000030F20029300A128A15D6256E
:100236000A128A1183120313B1012930F600003025
:10024600F7000A128A1531260A128A116A30F60058
:100256008030F7000A128A1531260A128A11831293
:100266000313B4010230340203184F290A128A1507
:1002760075240A128A11FB008312031334083F3EC9
:1002860084007B08831380000130FB007B08B407E1
:1002960002303402031C39290D30FC00FB30FB0010
:1002A600FB0B5329FC0B532958290800831203130F
:1002B600AD002130A3002308A6000130A007FF30BF
:1002C600200784000A128A110D200A128A11A3003F
:1002D6002308AE00AE0803192D2A2E08253A031965
:1002E60080292E08A3002D0884002308831380008C
:1002F6000130A3002308AD076029A7010130A0073C
:10030600FF30200784000A128A110D200A128A1172
:10031600AE00003A03192D2A643A031996290D3ABC
:100326000319962960292608840083130008A9006A
:10033600840A0008AA000230A3002308A607AA1F01
:10034600AD290330A3002308A704A909AA09A90A0D
:100356000319AA0AAE01AE0A2E08053A0319D429D2
:100366002E08A3002307013E84000A128A110D20DD
:100376000A128A11A4000A128A110D200A128A1181
:10038600A50025082A02031DCA2924082902031CE0
:10039600D4290130A3002308AE072E08053A031D11
:1003A600B329270803390319E3292D30A3002D08A3
:1003B60084002308831380000130A3002308AD07BF
:1003C6002E08A3002308A800FF30A3002308A807CF
:1003D6002808FF3A031960290A30F8000030F900AE
:1003E6002808A3002307013E84000A128A110D2063
:1003F6000A128A11F0000A128A110D200A128A11B5
:10040600F1002A08F301F3072908F201F2070A129C
:100416008A153C270A128A117108FB01FB0770082E
:10042600FA01FA070A128A1594260A128A1178081E
:10043600303E83120313A4002408AE002E08A30046
:100446002D0884002308831380000130A3002308AD
:10045600AD07E7292D088400831380010800831265
:100466000313AC00A9011030290203184C2A3030BE
:10047600FB0029082C07FC007C0884007B088313FA
:1004860080000130FB007B08A90710302902031CFD
:100496003A2A2C08103E8400831380010A128A151A
:1004A600AB240A128A116C30F6008030F7000A126B
:1004B6008A1531260A128A1183120313A801AA018A
:1004C60008302A0203187D2A0A128A1503260A1200
:1004D6008A11FB00831203132A08203E84007B083E
:1004E600831380000130FB007B08AA0708302A022C
:1004F600031C672A0730FB007B08AD00AD1B9B2A57
:100506002D08203E8400831380080319912A2D08A4
:10051600203E840000080D3A031D952A0130FB0099
:100526007B08A807FF30FB007B08AD07AD1F832AB9
:10053600AE0108302E020318B62A2E08203E84008B
:1005460083130008FB0028082E072C07FC007C08F4
:1005560084007B0880000130FB007B08AE07083072
:100566002E02031CA02A0A128A15AB240A128A112B
:100576007230F6008030F7000A128A1531260A1208
:100586008A1183120313A801AB0108302B0203184A
:10059600E22A0A128A1503260A128A11FB0083121E
:1005A60003132B08203E84007B0883138000013050
:1005B600FB007B08AB0708302B02031CCC2A073054
:1005C600FB007B08AF00AF1B002B2F08203E8400EA
:1005D600831380080319F62A2F08203E840000089A
:1005E6000D3A031DFA2A0130FB007B08A807FF30ED
:1005F600FB007B08AF07AF1FE82AB00108303002C6
:10060600031808003008203E840083130008FB000E
:1006160028083007083E2C07FC007C0884007B086D
:1006260080000130FB007B08B007012B8312031307
:10063600AD00831203132D08840083130008A40061
:100646002408AE000130A4002408AD072E080A12C3
:100656008A15C9240A128A11031C342B8312031328
:100666001C2B003083120313AC000030AB000030AB
:10067600AA000030A900A8012E082D3A031D462B1A
:10068600A801A80A4A2B2E082B3A031D552B2D0824
:10069600840083130008A4002408AE000130A400DF
:1006A6002408AD072E08303A031D8C2B2D08840034
:1006B60083130008A4002408AE000130A400240817
:1006C600AD072208210403196D2B103021062204E0
:1006D600031D842B2E08783A0319752B2E08583AD9
:1006E600031D842B1030A1000030A2002D088400C9
:1006F6000008A4002408AE000130A4002408AD07B9
:100706008C2B22082104031D8C2B0830A1000030FD
:10071600A20022082104031D942B0A30A1000030F8
:10072600A2002E080A128A15DB240A128A11031C5B
:10073600AB2B831203132E080A128A15BA240A1247
:100746008A11C93E83120313A4002408AE00B92BF4
:10075600831203132E080A128A158E240A128A118E
:10076600031C072C303083120313AE022208803A92
:10077600803C031DC02B21082E020318072C831270
:1007860003132E08A400A501A601A7012108F00065
:100796002208F1000030F11BFF30F200F3002C08B4
:1007A600F7002B08F6002A08F5002908F4000A12BB
:1007B6008A157A270A128A11700883120313A4076E
:1007C60071080318710FE82BE92BA50772080318A7
:1007D600720FEE2BEF2BA60773080318730AA707F1
:1007E6002708AC002608AB002508AA002408A900A3
:1007F6002D08840083130008A4002408AE000130ED
:10080600A4002408AD07942B8312031320080319B0
:10081600132C2D03A40020088400240883138000D1
:1008260028080319262C2909A0002A09A1002B094A
:10083600A2002C09A300A00A0319A10A0319A20AFF
:100846000319A30A08002C08A3002B08A2002A08F3
:10085600A1002908A00008000A128A1533250A12E9
:100866008A118312031387120A128A15FE260A12A8
:100876008A113B30F6008030F7000A128A1560268E
:100886000A128A110A128A156B250A128A11023077
:1008960083120313BE004530BD00A930BC00BC0B5B
:1008A600522CBD0B522CBE0B522C592C0A128A15F7
:1008B600C8260A128A11A0300A128A1132220A1296
:1008C6008A110B300A128A11AB200A128A110A12F7
:1008D6008A1589250A128A11023083120313BE0073
:1008E6004530BD00A930BC00BC0B772CBD0B772C66
:1008F600BE0B772C7E2C712DD801033058020318BD
:10090600A02C0A128A1575240A128A11831203135F
:10091600BC00831603135808CA3E840083120313CF
:100926003C08831380000130BC003C088316031387
:10093600D80703305802031C842CCD01D90110308E
:1009460059020318C22C0A128A1575240A128A1132
:1009560083120313BC00831603135908B23E8400A6
:10096600831203133C08831380000130BC003C084B
:1009760083160313D90710305902031CA62CC20193
:100986000A128A15C8260A128A11C3308312031363
:10099600BC003C08AF00DA30BD003D08B000D230E4
:1009A6000A128A11C3250A128A110A128A15892582
:1009B6000A128A112C30F6008030F7000A128A15C6
:1009C60031260A128A11CA30F6000030F7000A12E0
:1009D6008A1531260A128A114A30F6008030F7004D
:1009E6000A128A1531260A128A11B230F600003030
:1009F600F7000A128A1531260A128A115430F600B7
:100A06008030F7000A128A1531260A128A11A030A0
:100A1600F6000030F7000A128A1531260A128A11EA
:100A26005E30F6008030F7000A128A1531260A1267
:100A36008A11D230F6000030F7000A128A153126E4
:100A46000A128A1120300A128A15EE240A128A1115
:100A5600C330F6000030F7000A128A1531260A1252
:100A66008A1120300A128A15EE240A128A11DA3007
:100A7600F6000030F7000A128A1531260A128A118A
:100A86000A128A1565240A128A117E30F600803011
:100A9600F7000A128A1560260A128A11D230F60069
:100AA6000030F7000A128A1560260A128A110A1205
:100AB6008A159C240A128A11C330F6000030F7000A
:100AC6000A128A1560260A128A11DA30F6000030F8
:100AD600F7000A128A1560260A128A110A128A1566
:100AE600AB240A128A110A128A1575240A128A116F
:100AF60083120313BC003C0883160313D700570860
:100B06002A3A03197F2C831603135708213A031D2B
:100B1600712DE101033061020318AD2D0A128A1509
:100B260075240A128A1183120313BC008316031359
:100B36006108CE3E8400831203133C0883138000B1
:100B46000130BC003C0883160313E1070330610241
:100B5600031C912DD1010A128A1565240A128A11E5
:100B66001C30F6008030F7000A128A1560260A1239
:100B76008A110A128A159C240A128A11CE30692D0E
:100B860083120313B9003030B100390884003108EC
:100B9600831380007830B100390A84003108800060
:100BA6000A128A15AB240A128A116630F6008030C2
:100BB600F7000A128A1531260A128A1183120313C4
:100BC600B801023038020318012E0A128A1575245C
:100BD6000A128A1183120313B1003808023E39073C
:100BE600B200320884003108831380000130B1005E
:100BF6003108B80702303802031CE82D3908043ED4
:100C06008400831380013908023E84000008B10085
:100C16003108B3003908033E84000008B1003108EA
:100C2600B4003908043E84000008B1003108B5005C
:100C3600A0011030A1000030A20033300A128A1140
:100C460019230A128A11831203132108BB01BB0759
:100C56002008BA01BA079230B1003108A0003B085B
:100C6600A201A2073A08A101A10736300A128A1189
:100C760059210A128A112D3083120313B1002F084D
:100C860084003108831380003608B1002F0A8400DF
:100C9600310880003708B1002F08023E8400310871
:100CA60080006430B1002F08033E840031088000C4
:100CB6004230B1002F08043E8400310880006D30B8
:100CC600B1002F08053E8400310880002F08063E3B
:100CD6008400800100303B021A3003193A02031CDB
:100CE600A82E00303B02243003193A020318A82E1E
:100CF6002830B10030088400310880003130B1005E
:100D0600300A8400310880003030B1003008023EDD
:100D16008400310880003030B1003008033E840082
:100D2600310880002530B1003008043E84003108C7
:100D360080002930B1003008053E8400310880006B
:100D46003008063E84008001080000303B02243053
:100D560003193A02031CE02E00303B022E30031921
:100D66003A020318E02E2830B1003008840031081A
:100D760080003830B100300A8400310880003530F8
:100D8600B1003008023E8400310880002530B100F1
:100D96003008033E8400310880002930B100300855
:100DA600043E8400310880003008053E840080013E
:100DB6003008063E84008001080000303B022E30D9
:100DC60003193A02031C182F00303B02383003196E
:100DD6003A020318182F2830B10030088400310871
:100DE60080003630B100300A84003108800030308F
:100DF600B1003008023E8400310880002530B10081
:100E06003008033E8400310880002930B1003008E4
:100E1600043E8400310880003008053E84008001CD
:100E26003008063E84008001080000303B0238305E
:100E360003193A02031C502F00303B0242300319BB
:100E46003A020318502F2830B100300884003108C8
:100E560080003430B100300A84003108800035301B
:100E6600B1003008023E8400310880002530B10010
:100E76003008033E8400310880002930B100300874
:100E8600043E8400310880003008053E840080015D
:100E96003008063E84008001080000303B024230E4
:100EA60003193A02031C882F00303B024C30031909
:100EB6003A020318882F2830B10030088400310820
:100EC60080003330B100300A8400310880003030B1
:100ED600B1003008023E8400310880002530B100A0
:100EE6003008033E8400310880002930B100300804
:100EF600043E8400310880003008053E84008001ED
:100F06003008063E84008001080000303B024C3069
:100F160003193A02031CC02F00303B025630031956
:100F26003A020318C02F2830B10030088400310877
:100F360080003130B100300A84003108800035303D
:100F4600B1003008023E8400310880002530B1002F
:100F56003008033E8400310880002930B100300893
:100F6600043E8400310880003008053E840080017C
:100F76003008063E84008001080000303B025630EF
:100F860003193A02031C080000303B0260300319C3
:100F96003A02031808002830B100300884003108EE
:100FA60080003030B100300A8400310880002530DE
:100FB600B1003008023E8400310880002930B100BB
:100FC6003008033E8400310880003008043E840067
:100FD60080013008053E840080013008063E84000A
:100FE6008001080083133F30840050300A128A15AE
:0A0FF6006D2483010A128A112F2CCA
:1018CA000130F0000030F1000A128A154E25080096
:1018DA0064008001840A04060319003404066E2C8D
:1018EA000A128A1502250A128A15831203138C1EFC
:1018FA00752C1A080800F100F0015B307102031818
:10190A008C2C41307102031C8C2CF001F00A700CF3
:10191A000800F100F0013A30710203189A2C3030B5
:10192A007102031C9A2CF001F00A700C0800F930BD
:10193A00F4000000F40B9E2CA22C0000C030F00032
:10194A000030F1000A128A154E250800831203138B
:10195A001A08F0007008CF001A08F0007008CF00CB
:10196A001A08F0007008CF000800F1007B307102FD
:10197A000318C72C61307102031CC72CDF30F0003A
:10198A007008F10571080800F100F001F00A710809
:10199A00203A0319D92C0E3071020318D82C0930B9
:1019AA0071020318D92CF001700C0800F300F2013F
:1019BA00F20A7B3073020318E62C613073020318B3
:1019CA00EC2C73080A128A158024031CF201720C8B
:1019DA000800F2000A128A1502250A128A158312D1
:1019EA0003130C1EEF2C72089900F930F100000065
:1019FA00F10BFC2C002D0000080083120313981C25
:101A0A000E2D8316031398129816831203131812B5
:101A1A001816181D08001A08F0007008CF0083165F
:101A2A000313981298160800F10071088312031321
:101A3A0086000511851485154230F000F00B232D20
:101A4A0000004230F000F00B282D0000831203132F
:101A5A0085112130F000F00B302D08008B13831212
:101A6A000317850158308316031381008316031761
:101A7A0088018901831603139D01113085008601AF
:101A8A0080308700831203138501860187018B1733
:101A9A000800700883120313860005118510851546
:101AAA000330F3009730F200F20B592DF30B592D46
:101ABA005E2D8312031385110D30F300FB30F20003
:101ACA00F20B652DF30B652D6A2D08008030F000AE
:101ADA002530F1000A128A15B92783160313181242
:101AEA00831203139817831603130C128C12831292
:101AFA0003131813831603131813831203131816E8
:101B0A0083160313981608000A128A15AB240A12C0
:101B1A008A157830F6008030F7000A128A153126C5
:101B2A000A128A15FC0102307C02031808000A1204
:101B3A008A1575240A128A15FB007C083F3E840028
:101B4A007B08831380000130FB007B08FC07982D7B
:101B5A007108F501F5077008F401F4077508831296
:101B6A000313FF00740884000A128A1103200A1260
:101B7A008A1500380319C62D0130F4070318F50A2F
:101B8A00B32D7009F2007109F300F20A0319F30A7E
:101B9A0074087207F00075080318750A7307F100D4
:101BAA000800F4007008F3007308F6007408F300E4
:101BBA007308F5000130F1020030031CF203F2024F
:101BCA00FF307206031DEB2DFF3071060319080062
:101BDA00760884000A128A110D200A128A15F30067
:101BEA00750884007308831380000130F3007308BA
:101BFA00F6070130F3007308F507DF2D4030F100D6
:101C0A004230F2007208803AFF0080307F02031DE2
:101C1A00102E01307102031C2F2E831203138C1E07
:101C2A00182E1A0808000A128A1502250A128A159D
:101C3A000000FF30F1070318F20AFF30F2077208BA
:101C4A00803AFF0080307F02031D2D2E0130710281
:101C5A000318122E00300800FA017708F101F10783
:101C6A007608F001F0070A128A15AD250A128A15BC
:101C7A007A08F800F90171087902031D462E7008E6
:101C8A007802031808007A08760784007708031890
:101C9A00770A83120313FF000A128A1103200A1219
:101CAA008A150A128A15EE240A128A150130F800DA
:101CBA007808FA07322EFA017708F101F107760857
:101CCA00F001F0070A128A15AD250A128A157A0858
:101CDA00F800F90171087902031D752E700878025F
:101CEA0003188F2E7A087607840077080318770A74
:101CFA0083120313FF000A128A1103200A128A159B
:101D0A000A128A1519250A128A150130F80078086C
:101D1A00FA07612E20300A128A1519250800790857
:101D2A0078040319C12EFD01FD0AF91BA82E013002
:101D3A000310F80DF90DFF3E031D9D2E0130FC0026
:101D4A007C08FD079A2E79087B02031DAE2E7808BF
:101D5A007A02031CB62E7808FA027908031CFB03E0
:101D6A00FB0201300310F90CF80CFF3E031DB72EDD
:101D7A000130FD02031DA82E7B08F901F9077A0834
:101D8A00F801F80708000A128A15AB240A128A1504
:101D9A001430FC007930FB00FB0BD12EFC0BD12E4A
:101DAA00D62E8E30F6008030F7000A128A153126B8
:101DBA000A128A151430FC007930FB00FB0BE32E63
:101DCA00FC0BE32EE82EFD0102307D020318080009
:101DDA000A128A1575240A128A15FB007D083F3EED
:101DEA0084007B08831380000130FB007B08FD0719
:101DFA00E92E0130F0000030F1000A128A154E2552
:101E0A000A128A153830F0000030F1000A128A15D9
:101E1A004E250A128A150630F0000030F1000A1227
:101E2A008A154E250A128A150C30F0000030F1008E
:101E3A000A128A154E250A128A150130F00000305E
:101E4A00F1000A128A154E250A128A158030F0000E
:101E5A000030F1000A128A154E250A128A15F93045
:101E6A00F4000000F40B362F3A2F00000800F501A9
:101E7A00F601710870040319732FF701F70AF11BB1
:101E8A00522F01300310F00DF10DFF3E031D472FB5
:101E9A000130F4007408F707442F01300310F50DE0
:101EAA00F60DFF3E031D532F71087302031D5F2FAA
:101EBA0070087202031C682F7008F2027108031C72
:101ECA00F303F302751401300310F10CF00CFF3E1A
:101EDA00031D692F0130F702031D522F7608F10105
:101EEA00F1077508F001F00708000030FC00003027
:101EFA00FB000030FA000030F900701C982F7408BB
:101F0A00F907750803110318013E031DFA0776083D
:101F1A0003110318013E031DFB0777080311031879
:101F2A00013E031DFC070130F8000310F40DF50D06
:101F3A00F60DF70DF80B9A2F01300310F30CF20C83
:101F4A00F10CF00CFF3E031DA22F730872047104FA
:101F5A007004031D822F7C08F3007B08F2007A08C4
:101F6A00F1007908F0000800831603131815831688
:101F7A0003178711831603139A01D52FCF309900BF
:101F8A0008006730990008001930990008001730D6
:101F9A00990008000C3099000800193099000800CF
:101FAA007108043A0319E62F0D3A0319EB2F2C3A5C
:101FBA000319F02F0D3A0319F52F633A0319FA2F73
:101FCA00D22F7008B03A0319C32FD22F7008603A83
:101FDA000319C62FD22F7008803A0319C92FD22F9E
:101FEA007008B13A0319CC2FD22F7008003A03199E
:061FFA00CF2FD22F0800DA
:02400E00D4E0FC
:00000001FF
