:100000000A128A11F52FFF1B0D2883137F188317FF
:100010000008840A0319FF0A080000308A00040857
:10002000840A82070034013400340A340034643412
:100030000034E8340334103427343034303430346E
:100040003034303430343034303430343034303490
:100050003034303430343034303400340D344234C1
:1000600072346F346134643463346134733474349F
:10007000203423343A34203400340D344D346F347A
:10008000623469346C3465343A34203400340D34CD
:10009000533465346E3473346F3472343A342034EC
:1000A00000340D3452345334533449343A34203408
:1000B000003441345434443442340D340034413437
:1000C0005434533448340D340034413454345334AC
:1000D0004C340D3400344134543443344E340D34F4
:1000E00000344134543444344834003441345434BA
:1000F00044344C3400342B342B342B34003425342A
:10010000643400348030F0002530F1000A128A1186
:10011000DF20831603131812831203139817831614
:1001200003130C128C128312031318138316031378
:100130001813831203131816831603139816080056
:100140000030FC000030FB000030FA000030F90005
:10015000701CBE287408F907750803110318013EC6
:10016000031DFA07760803110318013E031DFB0760
:10017000770803110318013E031DFC070130F80046
:100180000310F40DF50DF60DF70DF80BC028013036
:100190000310F30CF20CF10CF00CFF3E031DC82809
:1001A0007308720471047004031DA8287C08F3000E
:1001B0007B08F2007A08F1007908F0000800831645
:1001C00003131815831603178711831603139A0157
:1001D000FB28CF30990008006730990008001930DB
:1001E000990008001730990008000C3099000800A9
:1001F0001930990008007108043A03190C290D3AC6
:10020000031911292C3A031916290D3A03191B2930
:10021000633A03192029F8287008B03A0319E9282D
:10022000F8287008603A0319EC28F8287008803A1A
:100230000319EF28F8287008B13A0319F228F828B2
:100240007008003A0319F528F828080083120313F0
:10025000B2000A128A15F6250A128A115F30F600DA
:100260008030F7000A128A1529270A128A11831290
:1002700003133208FB007B08F0000830F100003067
:10028000F20020300A128A15CE260A128A11831231
:100290000313A8012030F6000030F7000A128A1577
:1002A00029270A128A114B30F6008030F7000A1213
:1002B0008A1529270A128A1183120313B301023007
:1002C0003302031879290A128A15CF250A128A11D6
:1002D000FB008312031333083F3E84007B08831323
:1002E00080000130FB007B08B30702303302031C9F
:1002F00063290A128A15F6250A128A116430F6005B
:100300008030F7000A128A1529270A128A118312EF
:1003100003133208083EFB007B08F0000830F100B0
:100320000030F20029300A128A15CE260A128A11EC
:1003300083120313B1012930F6000030F7000A12CE
:100340008A1529270A128A114B30F6008030F700EF
:100350000A128A1529270A128A1183120313B4017B
:10036000023034020318CA290A128A15CF250A124C
:100370008A11FB008312031334083F3E84007B087C
:10038000831380000130FB007B08B4070230340285
:10039000031CB4290D30FC00FB30FB00FB0BCE2905
:1003A000FC0BCE29D329080083120313AD002130A2
:1003B000A3002308A6000130A007FF302007840017
:1003C0000A128A110D200A128A11A3002308AE0016
:1003D000AE080319A82A2E08253A0319FB292E086E
:1003E000A3002D0884002308831380000130A3009C
:1003F0002308AD07DB29A7010130A007FF30200744
:1004000084000A128A110D200A128A11AE00003AE5
:100410000319A82A643A0319112A0D3A0319112A5B
:10042000DB292608840083130008A900840A000839
:10043000AA000230A3002308A607AA1F282A033017
:10044000A3002308A704A909AA09A90A0319AA0A4B
:10045000AE01AE0A2E08053A03194F2A2E08A30052
:100460002307013E84000A128A110D200A128A1104
:10047000A4000A128A110D200A128A11A50025086B
:100480002A02031D452A24082902031C4F2A013091
:10049000A3002308AE072E08053A031D2E2A2708BD
:1004A000033903195E2A2D30A3002D088400230888
:1004B000831380000130A3002308AD072E08A3009A
:1004C0002308A800FF30A3002308A8072808FF3A44
:1004D0000319DB290A30F8000030F9002808A300CE
:1004E0002307013E84000A128A110D200A128A1184
:1004F000F0000A128A110D200A128A11F1002A084E
:10050000F301F3072908F201F2070A128A15C2273C
:100510000A128A117108FB01FB077008FA01FA0739
:100520000A128A1558270A128A117808303E831257
:100530000313A4002408AE002E08A3002D08840095
:100540002308831380000130A3002308AD07622A2B
:100550002D08840083138001080083120313AC006C
:10056000A901103029020318C72A3030FB002908DE
:100570002C07FC007C0884007B088313800001307A
:10058000FB007B08A90710302902031CB52A2C08A0
:10059000103E8400831380010A128A15F6250A1280
:1005A0008A114D30F6008030F7000A128A1529278B
:1005B0000A128A1183120313A801AA0108302A0221
:1005C0000318F82A0A128A15FB260A128A11FB0060
:1005D000831203132A08203E84007B0883138000C3
:1005E0000130FB007B08AA0708302A02031CE22A1C
:1005F0000730FB007B08AD00AD1B162B2D08203EFD
:1006000084008313800803190C2B2D08203E8400DE
:1006100000080D3A031D102B0130FB007B08A807D2
:10062000FF30FB007B08AD07AD1FFE2AAE0108308E
:100630002E020318312B2E08203E8400831300085D
:10064000FB0028082E072C07FC007C0884007B0890
:1006500080000130FB007B08AE0708302E02031C2F
:100660001B2B0A128A15F6250A128A115330F6003E
:100670008030F7000A128A1529270A128A1183127C
:100680000313A801AB0108302B0203185D2B0A12DB
:100690008A15FB260A128A11FB00831203132B080A
:1006A000203E84007B08831380000130FB007B0820
:1006B000AB0708302B02031C472B0730FB007B08DD
:1006C000AF00AF1B7B2B2F08203E840083138008D4
:1006D0000319712B2F08203E840000080D3A031DDA
:1006E000752B0130FB007B08A807FF30FB007B085F
:1006F000AF07AF1F632BB0010830300203180800AA
:100700003008203E840083130008FB0028083007CF
:10071000083E2C07FC007C0884007B088000013028
:10072000FB007B08B0077C2B83120313AD00831200
:1007300003132D08840083130008A4002408AE00CE
:100740000130A4002408AD072E080A128A151426C9
:100750000A128A11031CAF2B83120313972B00304C
:1007600083120313AC000030AB000030AA0000304D
:10077000A900A8012E082D3A031DC12BA801A80A23
:10078000C52B2E082B3A031DD02B2D088400831374
:100790000008A4002408AE000130A4002408AD071E
:1007A0002E08303A031D072C2D08840083130008FF
:1007B000A4002408AE000130A4002408AD072208DC
:1007C00021040319E82B103021062204031DFF2BFE
:1007D0002E08783A0319F02B2E08583A031DFF2BE8
:1007E0001030A1000030A2002D0884000008A400F1
:1007F0002408AE000130A4002408AD07072C22080D
:100800002104031D072C0830A1000030A20022089B
:100810002104031D0F2C0A30A1000030A2002E0875
:100820000A128A1526260A128A11031C262C831204
:1008300003132E080A128A1505260A128A11C93EC8
:1008400083120313A4002408AE00342C8312031374
:100850002E080A128A15E8250A128A11031C822C16
:10086000303083120313AE022208803A803C031D0D
:100870003B2C21082E020318822C831203132E080E
:10088000A400A501A601A7012108F0002208F1009B
:100890000030F11BFF30F200F3002C08F7002B08AA
:1008A000F6002A08F5002908F4000A128A11A0208F
:1008B0000A128A11700883120313A407710803181F
:1008C000710F632C642CA50772080318720F692C32
:1008D0006A2CA60773080318730AA7072708AC0039
:1008E0002608AB002508AA002408A9002D088400CA
:1008F00083130008A4002408AE000130A4002408DB
:10090000AD070F2C83120313200803198E2C2D031F
:10091000A4002008840024088313800028080319F9
:10092000A12C2909A0002A09A1002B09A2002C0949
:10093000A300A00A0319A10A0319A20A0319A30A12
:1009400008002C08A3002B08A2002A08A1002908EF
:10095000A00008000A128A1564260A128A110A12D7
:100960008A1182200A128A11831203139817023007
:10097000BE004530BD00A930BC00BC0BBD2CBD0B7A
:10098000BD2CBE0BBD2CC42C0A128A158C270A1252
:100990008A11A0300A128A11AD220A128A110B3074
:1009A0000A128A1126210A128A110A128A15812630
:1009B0000A128A11023083120313BE004530BD00B3
:1009C000A930BC00BC0BE22CBD0BE22CBE0BE22C10
:1009D000E92C0A128A15F6250A128A110A128A15BA
:1009E000CF250A128A1183120313BC003C08831618
:1009F0000313D20052082A3A031DE92CDA0103300E
:100A00005A0203181F2D0A128A15CF250A128A11BD
:100A100083120313BC00831603135A08CE3E8400CE
:100A2000831203133C08831380000130BC003C0890
:100A300083160313DA0703305A02031C032DD10176
:100A4000DB0110305B020318412D0A128A15CF25F5
:100A50000A128A1183120313BC00831603135B0866
:100A6000B13E8400831203133C08831380000130DD
:100A7000BC003C0883160313DB0710305B02031C29
:100A8000252DC1010A128A158C270A128A11C2303B
:100A900083120313BC003C08AF00D330BD003D08F7
:100AA000B000C9300A128A11C3250A128A110A122B
:100AB0008A1581260A128A111C30F6008030F70050
:100AC0000A128A1529270A128A11CE30F600003040
:100AD000F7000A128A1529270A128A112B30F6000C
:100AE0008030F7000A128A1529270A128A11B130BC
:100AF000F6000030F7000A128A1529270A128A1117
:100B00003530F6008030F7000A128A1529270A12BC
:100B10008A11A030F6000030F7000A128A15292742
:100B20000A128A113F30F6008030F7000A128A1547
:100B300029270A128A11C930F6000030F7000A127C
:100B40008A1529270A128A1120300A128A15392695
:100B50000A128A11C230F6000030F7000A128A1514
:100B600029270A128A1120300A128A1539260A12F8
:100B70008A11D330F6000030F7000A128A152927AF
:100B80000A128A11E92C83120313B9003030B10024
:100B9000390884003108831380007830B100390AA5
:100BA0008400310880000A128A15F6250A128A117B
:100BB0004730F6008030F7000A128A1529270A12FA
:100BC0008A1183120313B801023038020318012E70
:100BD0000A128A15CF250A128A1183120313B10053
:100BE0003808023E3907B200320884003108831306
:100BF00080000130B1003108B80702303802031C10
:100C0000E82D3908043E8400831380013908023E30
:100C100084000008B1003108B3003908033E8400A5
:100C20000008B1003108B4003908043E840000080F
:100C3000B1003108B500A0011030A1000030A200C1
:100C400033300A128A1194230A128A118312031371
:100C50002108BB01BB072008BA01BA076D30B100FB
:100C60003108A0003B08A201A2073A08A101A10790
:100C700036300A128A11D4210A128A112D308312B9
:100C80000313B1002F088400310883138000360855
:100C9000B1002F0A8400310880003708B1002F0806
:100CA000023E8400310880006430B1002F08033E0A
:100CB0008400310880004230B1002F08043E8400D7
:100CC000310880006D30B1002F08053E84003108E6
:100CD00080002F08063E8400800100303B021A305D
:100CE00003193A02031CA82E00303B0224300319DA
:100CF0003A020318A82E2830B100300884003108C9
:100D000080003130B100300A84003108800030307A
:100D1000B1003008023E8400310880003030B1005C
:100D20003008033E8400310880002530B1003008CF
:100D3000043E8400310880002930B1003008053EAF
:100D40008400310880003008063E840080010800DD
:100D500000303B02243003193A02031CE02E00301D
:100D60003B022E3003193A020318E02E2830B1005E
:100D700030088400310880003830B100300A840027
:100D8000310880003530B1003008023E840031085F
:100D900080002530B1003008033E84003108800017
:100DA0002930B1003008043E84003108800030084A
:100DB000053E840080013008063E84008001080062
:100DC00000303B022E3003193A02031C182F00306A
:100DD0003B02383003193A020318182F2830B100AB
:100DE00030088400310880003630B100300A8400B9
:100DF000310880003030B1003008023E84003108F4
:100E000080002530B1003008033E840031088000A6
:100E10002930B1003008043E8400310880003008D9
:100E2000053E840080013008063E840080010800F1
:100E300000303B02383003193A02031C502F0030B7
:100E40003B02423003193A020318502F2830B100F8
:100E500030088400310880003430B100300A84004A
:100E6000310880003530B1003008023E840031087E
:100E700080002530B1003008033E84003108800036
:100E80002930B1003008043E840031088000300869
:100E9000053E840080013008063E84008001080081
:100EA00000303B02423003193A02031C882F003005
:100EB0003B024C3003193A020318882F2830B10046
:100EC00030088400310880003330B100300A8400DB
:100ED000310880003030B1003008023E8400310813
:100EE00080002530B1003008033E840031088000C6
:100EF0002930B1003008043E8400310880003008F9
:100F0000053E840080013008063E84008001080010
:100F100000303B024C3003193A02031CC02F003052
:100F20003B02563003193A020318C02F2830B10093
:100F300030088400310880003130B100300A84006C
:100F4000310880003530B1003008023E840031089D
:100F500080002530B1003008033E84003108800055
:100F60002930B1003008043E840031088000300888
:100F7000053E840080013008063E840080010800A0
:100F800000303B02563003193A02031C08000030BF
:100F90003B02603003193A02031808002830B10000
:100FA00030088400310880003030B100300A8400FD
:100FB000310880002530B1003008023E840031083D
:100FC00080002930B1003008033E840031088000E1
:100FD0003008043E840080013008053E8400800112
:100FE0003008063E84008001080083133F308400EF
:100FF00050300A128A15C72583010A128A11AA2CB9
:101B8E0064008001840A0406031900340406C82D7B
:101B9E000A128A154D260A128A15831203138C1EF9
:101BAE00CF2D1A080800F100F0015B307102031806
:101BBE00E62D41307102031CE62DF001F00A700C87
:101BCE000800F100F0013A3071020318F42D3030A4
:101BDE007102031CF42DF001F00A700C0800831240
:101BEE0003131A08F0007008CF001A08F0007008EE
:101BFE00CF001A08F0007008CF000800F1007B300B
:101C0E0071020318122E61307102031C122EDF3086
:101C1E00F0007008F10571080800F100F001F00AFB
:101C2E007108203A0319242E0E3071020318232E48
:101C3E00093071020318242EF001700C0800F30015
:101C4E00F201F20A7B3073020318312E61307302F7
:101C5E000318372E73080A128A15DA25031CF201AF
:101C6E00720C0800F2000A128A154D260A128A1505
:101C7E00831203130C1E3A2E72089900F930F100EC
:101C8E000000F10B472E4B2E0000080083120313A9
:101C9E00981C592E83160313981298168312031349
:101CAE0018121816181D08001A08F0007008CF0038
:101CBE00831603139812981608008B1383120317BA
:101CCE00850158308316031381008316031788018C
:101CDE008901831603139D018501FF30860087015C
:101CEE00831203138501860187018B178316031355
:101CFE000C1208000A128A15F6250A128A15593096
:101D0E00F6008030F7000A128A1529270A128A1562
:101D1E00FC0102307C02031808000A128A15CF2536
:101D2E000A128A15FB007C083F3E84007B08831351
:101D3E0080000130FB007B08FC07902E7108F50136
:101D4E00F5077008F401F407750883120313FF00FA
:101D5E00740884000A128A1103200A128A150038A8
:101D6E000319BE2E0130F4070318F50AAB2E7009C5
:101D7E00F2007109F300F20A0319F30A74087207EC
:101D8E00F00075080318750A7307F1000800F400D7
:101D9E007008F3007308F6007408F3007308F5007A
:101DAE000130F1020030031CF203F202FF30720622
:101DBE00031DE32EFF307106031908007608840018
:101DCE000A128A110D200A128A15F3007508840072
:101DDE007308831380000130F3007308F607013097
:101DEE00F3007308F507D72E4030F1004230F200B1
:101DFE007208803AFF0080307F02031D082F0130E9
:101E0E007102031C272F831203138C1E102F1A0826
:101E1E0008000A128A154D260A128A150000FF3094
:101E2E00F1070318F20AFF30F2077208803AFF003A
:101E3E0080307F02031D252F0130710203180A2FF7
:101E4E0000300800FA017708F101F1077608F00179
:101E5E00F0070A128A15A5260A128A157A08F800C2
:101E6E00F90171087902031D3E2F700878020318DC
:101E7E0008007A087607840077080318770A831219
:101E8E000313FF000A128A1103200A128A150A127E
:101E9E008A1539260A128A150130F8007808FA07D1
:101EAE002A2F790878040319852FFD01FD0AF91BE5
:101EBE006C2F01300310F80DF90DFF3E031D612F3D
:101ECE000130FC007C08FD075E2F79087B02031DA4
:101EDE00722F78087A02031C7A2F7808FA02790892
:101EEE00031CFB03FB0201300310F90CF80CFF3E40
:101EFE00031D7B2F0130FD02031D6C2F7B08F901A2
:101F0E00F9077A08F801F80708000A128A15F6256B
:101F1E000A128A151430FC007930FB00FB0B952F4A
:101F2E00FC0B952F9A2F6930F6008030F7000A12BD
:101F3E008A1529270A128A151430FC007930FB0005
:101F4E00FB0BA72FFC0BA72FAC2FFD0102307D0240
:101F5E00031808000A128A15CF250A128A15FB00EB
:101F6E007D083F3E84007B08831380000130FB0018
:101F7E007B08FD07AD2FF501F601710870040319FA
:101F8E00F92FF701F70AF11BD82F01300310F00DCE
:101F9E00F10DFF3E031DCD2F0130F4007408F7073D
:101FAE00CA2F01300310F50DF60DFF3E031DD92F7C
:101FBE0071087302031DE52F70087202031CEE2FC9
:101FCE007008F2027108031CF303F302751401305A
:101FDE000310F10CF00CFF3E031DEF2F0130F70242
:101FEE00031DD82F7608F101F1077508F001F007EF
:021FFE000800D9
:02400E00D4E0FC
:00000001FF
