:100000000A128A11F42FFF1B0D2883137F18831700
:100010000008840A0319FF0A080000308A00040857
:10002000840A82070034013400340A340034643412
:100030000034E8340334103427343034303430346E
:100040003034303430343034303430343034303490
:100050003034463446344634463400344134543423
:10006000443442340D34003441345434533448342D
:100070000D3400344134543453344C340D34003492
:100080004134543443344E340D3400344134543408
:100090004434483400344134543444344C3400340F
:0E00A0002B342B342B340034253464340034DC
:1002E40064008001840A0406031900340406732997
:1002F4000A128A11A8210A128A11831203138C1E6E
:100304007A291A080800831203131A08F0007008E7
:10031400E1001A08F0007008E1001A08F000700803
:10032400E1000800F2000A128A11A8210A128A11B7
:10033400831203130C1E952972089900F930F100F9
:100344000000F10BA229A629000008008312031360
:10035400981CB42983160313981298168312031356
:1003640018121816181D08001A08F0007008E10089
:10037400831603139812981608008B13831203171D
:1003840085015830831603138100831603178801EF
:100394008901831603139D018501FF3086008701BF
:1003A400831203138501860187018B1708008030AF
:1003B400F0002530F1000A128A1176238316031304
:1003C4001812831203139817831603130C128C123A
:1003D40083120313181383160313181383120313BE
:1003E400181683160313981608000A128A11852119
:1003F4000A128A112E30F6008030F7000A128A1190
:100404009F220A128A11FC0102307C0203180800A0
:100414000A128A117A210A128A11FB007C08A03E72
:1004240084007B08831380000130FB007B08FC07F9
:10043400062A7108F501F5077008F401F407750838
:1004440083120313FF00740884000A128A11032024
:100454000A128A1100380319342A0130F4070318E8
:10046400F50A212A7009F2007109F300F20A03194E
:10047400F30A74087207F00075080318750A730705
:10048400F1000800F6007008F3007308F500760820
:10049400F3007308F4000130F1020030031CF2038E
:1004A400F202FF307206031D592AFF307106031948
:1004B4000800750884000A128A110D200A128A1194
:1004C400F300740884007308831380000130F30080
:1004D4007308F5070130F3007308F4074D2A403020
:1004E400F1004230F2007208803AFF0080307F024F
:1004F400031D7E2A01307102031C9D2A83120313FB
:100504008C1E862A1A0808000A128A11A8210A12C7
:100514008A110000FF30F1070318F20AFF30F207D6
:100524007208803AFF0080307F02031D9B2A01304D
:1005340071020318802A00300800FA017708F101DB
:10054400F1077608F001F0070A128A111B220A1239
:100554008A117A08F800F90171087902031DB42A96
:1005640070087802031808007A0876078400770870
:100574000318770A83120313FF000A128A11032057
:100584000A128A110A128A1194210A128A1101305C
:10059400F8007808FA07A02A790878040319FB2AD6
:1005A400FD01FD0AF91BE22A01300310F80DF90DD3
:1005B400FF3E031DD72A0130FC007C08FD07D42A26
:1005C40079087B02031DE82A78087A02031CF02AC2
:1005D4007808FA027908031CFB03FB0201300310BC
:1005E400F90CF80CFF3E031DF12A0130FD02031D36
:1005F400E22A7B08F901F9077A08F801F8070800EC
:100604000A128A1185210A128A111430FC007930E9
:10061400FB00FB0B0B2BFC0B0B2B102B3E30F600C3
:100624008030F7000A128A119F220A128A111430AC
:10063400FC007930FB00FB0B1D2BFC0B1D2B222B2C
:10064400FD0102307D02031808000A128A117A2182
:100654000A128A11FB007D08A03E84007B088313E4
:1006640080000130FB007B08FD07232BF501F60118
:100674007108700403196F2BF701F70AF11B4E2B55
:1006840001300310F00DF10DFF3E031D432B01302B
:10069400F4007408F707402B01300310F50DF60D34
:1006A400FF3E031D4F2B71087302031D5B2B700863
:1006B4007202031C642B7008F2027108031CF3031A
:1006C400F302751401300310F10CF00CFF3E031D0E
:1006D400652B0130F702031D4E2B7608F101F1075B
:1006E4007508F001F0070800831603131815831624
:1006F40003178711831603139A01922BCF309900A5
:100704000800673099000800193099000800173074
:10071400990008000C30990008001930990008006D
:100724007108043A0319A32B0D3A0319A82B2C3A88
:100734000319AD2B0D3A0319B22B633A0319B72BE6
:100744008F2B7008B03A0319802B8F2B7008603AF6
:100754000319832B8F2B7008803A0319862B8F2B58
:100764007008B13A0319892B8F2B7008003A0319CA
:100774008C2B8F2B080083120313B2000A128A11E8
:1007840085210A128A113430F6008030F7000A12EB
:100794008A119F220A128A11831203133208FB0062
:1007A4007B08F0000830F1000030F20020300A121B
:1007B4008A1144220A128A1183120313A8012030D9
:1007C400F6000030F7000A128A119F220A128A11D9
:1007D4002030F6008030F7000A128A119F220A1294
:1007E4008A1183120313B301023033020318102C4D
:1007F4000A128A117A210A128A11FB008312031346
:100804003308A03E84007B08831380000130FB0082
:100814007B08B30702303302031CFA2B0A128A1135
:1008240085210A128A113930F6008030F7000A1245
:100834008A119F220A128A11831203133208083E76
:10084400FB007B08F0000830F1000030F200293092
:100854000A128A1144220A128A1183120313B10163
:100864002930F6000030F7000A128A119F220A127A
:100874008A112030F6008030F7000A128A119F2274
:100884000A128A1183120313B401023034020318CA
:10089400612C0A128A117A210A128A11FB0083122E
:1008A40003133408A03E84007B08831380000130C6
:1008B400FB007B08B40702303402031C4B2C0D30C0
:1008C400FC00FB30FB00FB0B652CFC0B652C6A2C3D
:1008D400080083120313AD002130A3002308A600EF
:1008E4000130A007FF30200784000A128A110D206E
:1008F4000A128A11A3002308AE00AE0803193F2D83
:100904002E08253A0319922C2E08A3002D088400E2
:100914002308831380000130A3002308AD07722C41
:10092400A7010130A007FF30200784000A128A11B2
:100934000D200A128A11AE00003A03193F2D643AC1
:100944000319A82C0D3A0319A82C722C260884002C
:1009540083130008A900840A0008AA000230A30037
:100964002308A607AA1FBF2C0330A3002308A7044B
:10097400A909AA09A90A0319AA0AAE01AE0A2E08EE
:10098400053A0319E62C2E08A3002307013E840030
:100994000A128A110D200A128A11A4000A128A115D
:1009A4000D200A128A11A50025082A02031DDC2C39
:1009B40024082902031CE62C0130A3002308AE07F7
:1009C4002E08053A031DC52C270803390319F52CF5
:1009D4002D30A3002D0884002308831380000130E8
:1009E400A3002308AD072E08A3002308A800FF30A6
:1009F400A3002308A8072808FF3A0319722C0A3019
:100A0400F8000030F9002808A3002307013E840001
:100A14000A128A110D200A128A11F0000A128A1190
:100A24000D200A128A11F1002A08F301F30729089C
:100A3400F201F2070A128A1138230A128A11710884
:100A4400FB01FB077008FA01FA070A128A11CE2289
:100A54000A128A117808303E83120313A400240872
:100A6400AE002E08A3002D08840023088313800001
:100A74000130A3002308AD07F92C2D08840083134B
:100A84008001080083120313AC00A901103029026D
:100A940003185E2D3030FB0029082C07FC007C086D
:100AA40084007B08831380000130FB007B08A907C6
:100AB40010302902031C4C2D2C08103E8400831393
:100AC40080010A128A1185210A128A112230F60045
:100AD4008030F7000A128A119F220A128A118312A7
:100AE4000313A801AA0108302A0203188F2D0A1241
:100AF4008A1171220A128A11FB00831203132A0835
:100B0400203E84007B08831380000130FB007B08B7
:100B1400AA0708302A02031C792D0730FB007B0842
:100B2400AD00AD1BAD2D2D08203E8400831380083D
:100B34000319A32D2D08203E840000080D3A031D3F
:100B4400A72D0130FB007B08A807FF30FB007B08C2
:100B5400AD07AD1F952DAE0108302E020318C82D28
:100B64002E08203E840083130008FB0028082E076B
:100B74002C07FC007C0884007B0880000130FB000B
:100B84007B08AE0708302E02031CB22D0A128A110C
:100B940085210A128A112830F6008030F7000A12E3
:100BA4008A119F220A128A1183120313A801AB012E
:100BB40008302B020318F42D0A128A1171220A122A
:100BC4008A11FB00831203132B08203E84007B0848
:100BD400831380000130FB007B08AB0708302B0235
:100BE400031CDE2D0730FB007B08AF00AF1B122E69
:100BF4002F08203E8400831380080319082E2F0831
:100C0400203E840000080D3A031D0C2E0130FB0029
:100C14007B08A807FF30FB007B08AF07AF1FFA2D46
:100C2400B00108303002031808003008203E840068
:100C340083130008FB0028083007083E2C07FC003B
:100C44007C0884007B0880000130FB007B08B0072F
:100C5400132E0A128A11BF210A128A110A128A114A
:100C6400D9210A128A118312031398170230B7008C
:100C74004530B600A930B500B50B3E2EB60B3E2E5E
:100C8400B70B3E2E452E0A128A1102230A128A112C
:100C94000B300A128A11BD230A128A1138300A1243
:100CA4008A1144250A128A110A128A11F7210A129A
:100CB4008A1183120313DF01E00183120313061C5C
:100CC400D92E21300A128A1194210A128A119330E2
:100CD40083120313DD000030DE005E08803AFF005B
:100CE40080307F02031D782E0A305D020318902E97
:100CF400303083120313B5003508D3003030B5000B
:100D04003508D4004230B5003508A0005E08A201C1
:100D1400A2075D08A101A1075530BC2E831203135D
:100D24005E08803AFF0080307F02031D9B2E6430F2
:100D34005D020318AF2E303083120313B50035085B
:100D4400D3004230B5003508A0005E08A201A20716
:100D54005D08A101A1075430BC2E42308312031355
:100D6400B5003508A0005E08A201A2075D08A10134
:100D7400A10753300A128A116B240A128A115330C4
:100D8400F6000030F7000A128A119F220A128A1113
:100D9400023083120313B7004530B600A930B50002
:100DA400B50BD22EB60BD22EB70BD22ED92E831260
:100DB4000313861C5F2E85170230B7004530B6003A
:100DC400A930B500B50BE42EB60BE42EB70BE42E18
:100DD400EB2E2A300A128A1194210A128A11033046
:100DE400831203136006031DF92EE7305F06031D0B
:100DF400FF2E0130DF000030E0006008803AFF0081
:100E040080307F02031D082F0A305F020318202F51
:100E1400303083120313B5003508C9003030B500F3
:100E24003508CA004230B5003508A0006008A201A8
:100E3400A2075F08A101A1074B304C2F83120313B3
:100E44006008803AFF0080307F02031D2B2F64303E
:100E54005F0203183F2F303083120313B5003508A7
:100E6400C9004230B5003508A0006008A201A207FD
:100E74005F08A101A1074A304C2F423083120313AB
:100E8400B5003508A0006008A201A2075F08A1010F
:100E9400A10749300A128A116B240A128A114930B7
:100EA400F6000030F7000A128A119F220A128A11F2
:100EB400013083120313DF070318E00A0030E00750
:100EC4003830F6000030F7000A128A119F220A1205
:100ED4008A11023083120313B7004530B600A930DB
:100EE400B500B50B732FB60B732FB70B732F7A2F77
:100EF400023083120313B7004530B600A930B500A1
:100F0400B50B822FB60B822FB70B822F892F02309D
:100F140083120313B7004530B600A930B500B50BF2
:100F2400912FB60B912FB70B912F982F023083126C
:100F34000313B7004530B600A930B500B50BA02F98
:100F4400B60BA02FB70BA02FA72F023083120313C9
:100F5400B7004530B600A930B500B50BAF2FB60BBE
:100F6400AF2FB70BAF2FB62F023083120313B70086
:100F74004530B600A930B500B50BBE2FB60BBE2F59
:100F8400B70BBE2FC52F023083120313B7004530B1
:100F9400B600A930B500B50BCD2FB60BCD2FB70BCE
:100FA400CD2FD42F023083120313B7004530B6007F
:100FB400A930B500B50BDC2FB60BDC2FB70BDC2F3B
:100FC400E32F8312031385130230B7004530B600B4
:100FD400A930B500B50BEC2FB60BEC2FB70BEC2FEB
:100FE400F32F5F2EE1018313A0308400B0300A1286
:0C0FF4008A11722183010A128A112B2E2F
:02400E00D4E0FC
:00000001FF
